{
  "_format": "hh-sol-artifact-1",
  "contractName": "Rewarder",
  "sourceName": "contracts/Rewarder.sol",
  "abi": [
    {
      "inputs": [
        {
          "internalType": "uint96",
          "name": "_resolution",
          "type": "uint96"
        },
        {
          "internalType": "uint256",
          "name": "_max_tokens_per_cell",
          "type": "uint256"
        },
        {
          "internalType": "uint256",
          "name": "_first_image_value",
          "type": "uint256"
        }
      ],
      "stateMutability": "nonpayable",
      "type": "constructor"
    },
    {
      "anonymous": false,
      "inputs": [
        {
          "indexed": true,
          "internalType": "address",
          "name": "owner",
          "type": "address"
        },
        {
          "indexed": true,
          "internalType": "address",
          "name": "spender",
          "type": "address"
        },
        {
          "indexed": false,
          "internalType": "uint256",
          "name": "value",
          "type": "uint256"
        }
      ],
      "name": "Approval",
      "type": "event"
    },
    {
      "anonymous": false,
      "inputs": [
        {
          "indexed": true,
          "internalType": "address",
          "name": "previousOwner",
          "type": "address"
        },
        {
          "indexed": true,
          "internalType": "address",
          "name": "newOwner",
          "type": "address"
        }
      ],
      "name": "OwnershipTransferred",
      "type": "event"
    },
    {
      "anonymous": false,
      "inputs": [
        {
          "indexed": false,
          "internalType": "address",
          "name": "account",
          "type": "address"
        }
      ],
      "name": "Paused",
      "type": "event"
    },
    {
      "anonymous": false,
      "inputs": [
        {
          "indexed": true,
          "internalType": "address",
          "name": "from",
          "type": "address"
        },
        {
          "indexed": true,
          "internalType": "address",
          "name": "to",
          "type": "address"
        },
        {
          "indexed": false,
          "internalType": "uint256",
          "name": "value",
          "type": "uint256"
        }
      ],
      "name": "Transfer",
      "type": "event"
    },
    {
      "anonymous": false,
      "inputs": [
        {
          "indexed": false,
          "internalType": "address",
          "name": "account",
          "type": "address"
        }
      ],
      "name": "Unpaused",
      "type": "event"
    },
    {
      "anonymous": false,
      "inputs": [
        {
          "indexed": false,
          "internalType": "uint256",
          "name": "resolution",
          "type": "uint256"
        },
        {
          "indexed": false,
          "internalType": "string",
          "name": "hexID",
          "type": "string"
        },
        {
          "indexed": false,
          "internalType": "uint256",
          "name": "next_reward",
          "type": "uint256"
        },
        {
          "indexed": false,
          "internalType": "uint256",
          "name": "remaining_total",
          "type": "uint256"
        }
      ],
      "name": "reducedAmount",
      "type": "event"
    },
    {
      "inputs": [
        {
          "internalType": "address",
          "name": "owner",
          "type": "address"
        },
        {
          "internalType": "address",
          "name": "spender",
          "type": "address"
        }
      ],
      "name": "allowance",
      "outputs": [
        {
          "internalType": "uint256",
          "name": "",
          "type": "uint256"
        }
      ],
      "stateMutability": "view",
      "type": "function"
    },
    {
      "inputs": [
        {
          "internalType": "address",
          "name": "spender",
          "type": "address"
        },
        {
          "internalType": "uint256",
          "name": "amount",
          "type": "uint256"
        }
      ],
      "name": "approve",
      "outputs": [
        {
          "internalType": "bool",
          "name": "",
          "type": "bool"
        }
      ],
      "stateMutability": "nonpayable",
      "type": "function"
    },
    {
      "inputs": [
        {
          "internalType": "address",
          "name": "account",
          "type": "address"
        }
      ],
      "name": "balanceOf",
      "outputs": [
        {
          "internalType": "uint256",
          "name": "",
          "type": "uint256"
        }
      ],
      "stateMutability": "view",
      "type": "function"
    },
    {
      "inputs": [
        {
          "internalType": "uint256",
          "name": "amount",
          "type": "uint256"
        }
      ],
      "name": "burn",
      "outputs": [],
      "stateMutability": "nonpayable",
      "type": "function"
    },
    {
      "inputs": [
        {
          "internalType": "address",
          "name": "account",
          "type": "address"
        },
        {
          "internalType": "uint256",
          "name": "amount",
          "type": "uint256"
        }
      ],
      "name": "burnFrom",
      "outputs": [],
      "stateMutability": "nonpayable",
      "type": "function"
    },
    {
      "inputs": [],
      "name": "decimals",
      "outputs": [
        {
          "internalType": "uint8",
          "name": "",
          "type": "uint8"
        }
      ],
      "stateMutability": "view",
      "type": "function"
    },
    {
      "inputs": [
        {
          "internalType": "address",
          "name": "spender",
          "type": "address"
        },
        {
          "internalType": "uint256",
          "name": "subtractedValue",
          "type": "uint256"
        }
      ],
      "name": "decreaseAllowance",
      "outputs": [
        {
          "internalType": "bool",
          "name": "",
          "type": "bool"
        }
      ],
      "stateMutability": "nonpayable",
      "type": "function"
    },
    {
      "inputs": [
        {
          "internalType": "address",
          "name": "receiver",
          "type": "address"
        },
        {
          "internalType": "uint256",
          "name": "quality",
          "type": "uint256"
        },
        {
          "internalType": "string",
          "name": "hexID",
          "type": "string"
        }
      ],
      "name": "giveReward",
      "outputs": [
        {
          "internalType": "uint256",
          "name": "",
          "type": "uint256"
        }
      ],
      "stateMutability": "nonpayable",
      "type": "function"
    },
    {
      "inputs": [
        {
          "internalType": "address",
          "name": "spender",
          "type": "address"
        },
        {
          "internalType": "uint256",
          "name": "addedValue",
          "type": "uint256"
        }
      ],
      "name": "increaseAllowance",
      "outputs": [
        {
          "internalType": "bool",
          "name": "",
          "type": "bool"
        }
      ],
      "stateMutability": "nonpayable",
      "type": "function"
    },
    {
      "inputs": [],
      "name": "name",
      "outputs": [
        {
          "internalType": "string",
          "name": "",
          "type": "string"
        }
      ],
      "stateMutability": "view",
      "type": "function"
    },
    {
      "inputs": [],
      "name": "owner",
      "outputs": [
        {
          "internalType": "address",
          "name": "",
          "type": "address"
        }
      ],
      "stateMutability": "view",
      "type": "function"
    },
    {
      "inputs": [],
      "name": "pause",
      "outputs": [],
      "stateMutability": "nonpayable",
      "type": "function"
    },
    {
      "inputs": [],
      "name": "paused",
      "outputs": [
        {
          "internalType": "bool",
          "name": "",
          "type": "bool"
        }
      ],
      "stateMutability": "view",
      "type": "function"
    },
    {
      "inputs": [],
      "name": "renounceOwnership",
      "outputs": [],
      "stateMutability": "nonpayable",
      "type": "function"
    },
    {
      "inputs": [],
      "name": "symbol",
      "outputs": [
        {
          "internalType": "string",
          "name": "",
          "type": "string"
        }
      ],
      "stateMutability": "view",
      "type": "function"
    },
    {
      "inputs": [],
      "name": "totalSupply",
      "outputs": [
        {
          "internalType": "uint256",
          "name": "",
          "type": "uint256"
        }
      ],
      "stateMutability": "view",
      "type": "function"
    },
    {
      "inputs": [
        {
          "internalType": "address",
          "name": "to",
          "type": "address"
        },
        {
          "internalType": "uint256",
          "name": "amount",
          "type": "uint256"
        }
      ],
      "name": "transfer",
      "outputs": [
        {
          "internalType": "bool",
          "name": "",
          "type": "bool"
        }
      ],
      "stateMutability": "nonpayable",
      "type": "function"
    },
    {
      "inputs": [
        {
          "internalType": "address",
          "name": "from",
          "type": "address"
        },
        {
          "internalType": "address",
          "name": "to",
          "type": "address"
        },
        {
          "internalType": "uint256",
          "name": "amount",
          "type": "uint256"
        }
      ],
      "name": "transferFrom",
      "outputs": [
        {
          "internalType": "bool",
          "name": "",
          "type": "bool"
        }
      ],
      "stateMutability": "nonpayable",
      "type": "function"
    },
    {
      "inputs": [
        {
          "internalType": "address",
          "name": "newOwner",
          "type": "address"
        }
      ],
      "name": "transferOwnership",
      "outputs": [],
      "stateMutability": "nonpayable",
      "type": "function"
    },
    {
      "inputs": [],
      "name": "unpause",
      "outputs": [],
      "stateMutability": "nonpayable",
      "type": "function"
    }
  ],
  "bytecode": "0x60806040523480156200001157600080fd5b5060405162002b2238038062002b22833981810160405281019062000037919062000348565b6040518060400160405280600b81526020017f4d6972726f72576f726c640000000000000000000000000000000000000000008152506040518060400160405280600481526020017f4d575244000000000000000000000000000000000000000000000000000000008152508160039080519060200190620000bb9291906200026a565b508060049080519060200190620000d49291906200026a565b5050506000600560006101000a81548160ff02191690831515021790555062000112620001066200019c60201b60201c565b620001a460201b60201c565b818111156200014a577f4e487b7100000000000000000000000000000000000000000000000000000000600052600160045260246000fd5b82600660006101000a8154816bffffffffffffffffffffffff02191690836bffffffffffffffffffffffff1602179055508160078190555080600881905550620186a060098190555050505062000459565b600033905090565b6000600560019054906101000a900473ffffffffffffffffffffffffffffffffffffffff16905081600560016101000a81548173ffffffffffffffffffffffffffffffffffffffff021916908373ffffffffffffffffffffffffffffffffffffffff1602179055508173ffffffffffffffffffffffffffffffffffffffff168173ffffffffffffffffffffffffffffffffffffffff167f8be0079c531659141344cd1fd0a4f28419497f9722a3daafe3b4186f6b6457e060405160405180910390a35050565b8280546200027890620003c0565b90600052602060002090601f0160209004810192826200029c5760008555620002e8565b82601f10620002b757805160ff1916838001178555620002e8565b82800160010185558215620002e8579182015b82811115620002e7578251825591602001919060010190620002ca565b5b509050620002f79190620002fb565b5090565b5b8082111562000316576000816000905550600101620002fc565b5090565b6000815190506200032b8162000425565b92915050565b60008151905062000342816200043f565b92915050565b6000806000606084860312156200035e57600080fd5b60006200036e8682870162000331565b935050602062000381868287016200031a565b925050604062000394868287016200031a565b9150509250925092565b6000819050919050565b60006bffffffffffffffffffffffff82169050919050565b60006002820490506001821680620003d957607f821691505b60208210811415620003f057620003ef620003f6565b5b50919050565b7f4e487b7100000000000000000000000000000000000000000000000000000000600052602260045260246000fd5b62000430816200039e565b81146200043c57600080fd5b50565b6200044a81620003a8565b81146200045657600080fd5b50565b6126b980620004696000396000f3fe608060405234801561001057600080fd5b506004361061012c5760003560e01c806370a08231116100ad57806395d89b411161007157806395d89b411461030d578063a457c2d71461032b578063a9059cbb1461035b578063dd62ed3e1461038b578063f2fde38b146103bb5761012c565b806370a082311461028f578063715018a6146102bf57806379cc6790146102c95780638456cb59146102e55780638da5cb5b146102ef5761012c565b806334c564cb116100f457806334c564cb146101eb578063395093511461021b5780633f4ba83a1461024b57806342966c68146102555780635c975abb146102715761012c565b806306fdde0314610131578063095ea7b31461014f57806318160ddd1461017f57806323b872dd1461019d578063313ce567146101cd575b600080fd5b6101396103d7565b6040516101469190611cda565b60405180910390f35b61016960048036038101906101649190611922565b610469565b6040516101769190611cbf565b60405180910390f35b61018761048c565b6040516101949190611ebc565b60405180910390f35b6101b760048036038101906101b291906118d3565b610496565b6040516101c49190611cbf565b60405180910390f35b6101d56104c5565b6040516101e29190611ed7565b60405180910390f35b6102056004803603810190610200919061195e565b6104ce565b6040516102129190611ebc565b60405180910390f35b61023560048036038101906102309190611922565b610817565b6040516102429190611cbf565b60405180910390f35b61025361084e565b005b61026f600480360381019061026a91906119c5565b6108d4565b005b6102796108e8565b6040516102869190611cbf565b60405180910390f35b6102a960048036038101906102a4919061186e565b6108ff565b6040516102b69190611ebc565b60405180910390f35b6102c7610947565b005b6102e360048036038101906102de9190611922565b6109cf565b005b6102ed6109ef565b005b6102f7610a75565b6040516103049190611ca4565b60405180910390f35b610315610a9f565b6040516103229190611cda565b60405180910390f35b61034560048036038101906103409190611922565b610b31565b6040516103529190611cbf565b60405180910390f35b61037560048036038101906103709190611922565b610ba8565b6040516103829190611cbf565b60405180910390f35b6103a560048036038101906103a09190611897565b610bcb565b6040516103b29190611ebc565b60405180910390f35b6103d560048036038101906103d0919061186e565b610c52565b005b6060600380546103e690612191565b80601f016020809104026020016040519081016040528092919081815260200182805461041290612191565b801561045f5780601f106104345761010080835404028352916020019161045f565b820191906000526020600020905b81548152906001019060200180831161044257829003601f168201915b5050505050905090565b600080610474610d4a565b9050610481818585610d52565b600191505092915050565b6000600254905090565b6000806104a1610d4a565b90506104ae858285610f1d565b6104b9858585610fa9565b60019150509392505050565b60006012905090565b60006104d8610d4a565b73ffffffffffffffffffffffffffffffffffffffff166104f6610a75565b73ffffffffffffffffffffffffffffffffffffffff161461054c576040517f08c379a000000000000000000000000000000000000000000000000000000000815260040161054390611dfc565b60405180910390fd5b620186a0831115610586577f4e487b7100000000000000000000000000000000000000000000000000000000600052600160045260246000fd5b60008314156105be577f4e487b7100000000000000000000000000000000000000000000000000000000600052600160045260246000fd5b6000600a836040516105d09190611c8d565b908152602001604051809103902054141561063057600854600b836040516105f89190611c8d565b908152602001604051809103902081905550600754600c8360405161061d9190611c8d565b9081526020016040518091039020819055505b6000600954600b846040516106459190611c8d565b9081526020016040518091039020548561065f9190612042565b6106699190612011565b90506001600a8460405161067d9190611c8d565b9081526020016040518091039020600082825461069a9190611fbb565b925050819055506000600c846040516106b39190611c8d565b908152602001604051809103902054905081600c856040516106d59190611c8d565b908152602001604051809103902060008282546106f2919061209c565b9250508190555080600b8560405161070a9190611c8d565b908152602001604051809103902054600c866040516107299190611c8d565b9081526020016040518091039020546107429190612042565b61074c9190612011565b600b8560405161075c9190611c8d565b908152602001604051809103902081905550610778868361122a565b7f41992600a05324bec4147d6866d2253f1a2836e50edd372b313a6014e64b2db3600660009054906101000a90046bffffffffffffffffffffffff1685600b876040516107c59190611c8d565b908152602001604051809103902054600c886040516107e49190611c8d565b9081526020016040518091039020546040516108039493929190611ef2565b60405180910390a181925050509392505050565b600080610822610d4a565b90506108438185856108348589610bcb565b61083e9190611fbb565b610d52565b600191505092915050565b610856610d4a565b73ffffffffffffffffffffffffffffffffffffffff16610874610a75565b73ffffffffffffffffffffffffffffffffffffffff16146108ca576040517f08c379a00000000000000000000000000000000000000000000000000000000081526004016108c190611dfc565b60405180910390fd5b6108d2611238565b565b6108e56108df610d4a565b826112da565b50565b6000600560009054906101000a900460ff16905090565b60008060008373ffffffffffffffffffffffffffffffffffffffff1673ffffffffffffffffffffffffffffffffffffffff168152602001908152602001600020549050919050565b61094f610d4a565b73ffffffffffffffffffffffffffffffffffffffff1661096d610a75565b73ffffffffffffffffffffffffffffffffffffffff16146109c3576040517f08c379a00000000000000000000000000000000000000000000000000000000081526004016109ba90611dfc565b60405180910390fd5b6109cd60006114b1565b565b6109e1826109db610d4a565b83610f1d565b6109eb82826112da565b5050565b6109f7610d4a565b73ffffffffffffffffffffffffffffffffffffffff16610a15610a75565b73ffffffffffffffffffffffffffffffffffffffff1614610a6b576040517f08c379a0000000000000000000000000000000000000000000000000000000008152600401610a6290611dfc565b60405180910390fd5b610a73611577565b565b6000600560019054906101000a900473ffffffffffffffffffffffffffffffffffffffff16905090565b606060048054610aae90612191565b80601f0160208091040260200160405190810160405280929190818152602001828054610ada90612191565b8015610b275780601f10610afc57610100808354040283529160200191610b27565b820191906000526020600020905b815481529060010190602001808311610b0a57829003601f168201915b5050505050905090565b600080610b3c610d4a565b90506000610b4a8286610bcb565b905083811015610b8f576040517f08c379a0000000000000000000000000000000000000000000000000000000008152600401610b8690611e7c565b60405180910390fd5b610b9c8286868403610d52565b60019250505092915050565b600080610bb3610d4a565b9050610bc0818585610fa9565b600191505092915050565b6000600160008473ffffffffffffffffffffffffffffffffffffffff1673ffffffffffffffffffffffffffffffffffffffff16815260200190815260200160002060008373ffffffffffffffffffffffffffffffffffffffff1673ffffffffffffffffffffffffffffffffffffffff16815260200190815260200160002054905092915050565b610c5a610d4a565b73ffffffffffffffffffffffffffffffffffffffff16610c78610a75565b73ffffffffffffffffffffffffffffffffffffffff1614610cce576040517f08c379a0000000000000000000000000000000000000000000000000000000008152600401610cc590611dfc565b60405180910390fd5b600073ffffffffffffffffffffffffffffffffffffffff168173ffffffffffffffffffffffffffffffffffffffff161415610d3e576040517f08c379a0000000000000000000000000000000000000000000000000000000008152600401610d3590611d5c565b60405180910390fd5b610d47816114b1565b50565b600033905090565b600073ffffffffffffffffffffffffffffffffffffffff168373ffffffffffffffffffffffffffffffffffffffff161415610dc2576040517f08c379a0000000000000000000000000000000000000000000000000000000008152600401610db990611e5c565b60405180910390fd5b600073ffffffffffffffffffffffffffffffffffffffff168273ffffffffffffffffffffffffffffffffffffffff161415610e32576040517f08c379a0000000000000000000000000000000000000000000000000000000008152600401610e2990611d7c565b60405180910390fd5b80600160008573ffffffffffffffffffffffffffffffffffffffff1673ffffffffffffffffffffffffffffffffffffffff16815260200190815260200160002060008473ffffffffffffffffffffffffffffffffffffffff1673ffffffffffffffffffffffffffffffffffffffff168152602001908152602001600020819055508173ffffffffffffffffffffffffffffffffffffffff168373ffffffffffffffffffffffffffffffffffffffff167f8c5be1e5ebec7d5bd14f71427d1e84f3dd0314c0f7b2291e5b200ac8c7c3b92583604051610f109190611ebc565b60405180910390a3505050565b6000610f298484610bcb565b90507fffffffffffffffffffffffffffffffffffffffffffffffffffffffffffffffff8114610fa35781811015610f95576040517f08c379a0000000000000000000000000000000000000000000000000000000008152600401610f8c90611d9c565b60405180910390fd5b610fa28484848403610d52565b5b50505050565b600073ffffffffffffffffffffffffffffffffffffffff168373ffffffffffffffffffffffffffffffffffffffff161415611019576040517f08c379a000000000000000000000000000000000000000000000000000000000815260040161101090611e3c565b60405180910390fd5b600073ffffffffffffffffffffffffffffffffffffffff168273ffffffffffffffffffffffffffffffffffffffff161415611089576040517f08c379a000000000000000000000000000000000000000000000000000000000815260040161108090611cfc565b60405180910390fd5b61109483838361161a565b60008060008573ffffffffffffffffffffffffffffffffffffffff1673ffffffffffffffffffffffffffffffffffffffff1681526020019081526020016000205490508181101561111a576040517f08c379a000000000000000000000000000000000000000000000000000000000815260040161111190611dbc565b60405180910390fd5b8181036000808673ffffffffffffffffffffffffffffffffffffffff1673ffffffffffffffffffffffffffffffffffffffff16815260200190815260200160002081905550816000808573ffffffffffffffffffffffffffffffffffffffff1673ffffffffffffffffffffffffffffffffffffffff16815260200190815260200160002060008282546111ad9190611fbb565b925050819055508273ffffffffffffffffffffffffffffffffffffffff168473ffffffffffffffffffffffffffffffffffffffff167fddf252ad1be2c89b69c2b068fc378daa952ba7f163c4a11628f55a4df523b3ef846040516112119190611ebc565b60405180910390a3611224848484611672565b50505050565b6112348282611677565b5050565b6112406108e8565b61127f576040517f08c379a000000000000000000000000000000000000000000000000000000000815260040161127690611d1c565b60405180910390fd5b6000600560006101000a81548160ff0219169083151502179055507f5db9ee0a495bf2e6ff9c91a7834c1ba4fdd244a5e8aa4e537bd38aeae4b073aa6112c3610d4a565b6040516112d09190611ca4565b60405180910390a1565b600073ffffffffffffffffffffffffffffffffffffffff168273ffffffffffffffffffffffffffffffffffffffff16141561134a576040517f08c379a000000000000000000000000000000000000000000000000000000000815260040161134190611e1c565b60405180910390fd5b6113568260008361161a565b60008060008473ffffffffffffffffffffffffffffffffffffffff1673ffffffffffffffffffffffffffffffffffffffff168152602001908152602001600020549050818110156113dc576040517f08c379a00000000000000000000000000000000000000000000000000000000081526004016113d390611d3c565b60405180910390fd5b8181036000808573ffffffffffffffffffffffffffffffffffffffff1673ffffffffffffffffffffffffffffffffffffffff168152602001908152602001600020819055508160026000828254611433919061209c565b92505081905550600073ffffffffffffffffffffffffffffffffffffffff168373ffffffffffffffffffffffffffffffffffffffff167fddf252ad1be2c89b69c2b068fc378daa952ba7f163c4a11628f55a4df523b3ef846040516114989190611ebc565b60405180910390a36114ac83600084611672565b505050565b6000600560019054906101000a900473ffffffffffffffffffffffffffffffffffffffff16905081600560016101000a81548173ffffffffffffffffffffffffffffffffffffffff021916908373ffffffffffffffffffffffffffffffffffffffff1602179055508173ffffffffffffffffffffffffffffffffffffffff168173ffffffffffffffffffffffffffffffffffffffff167f8be0079c531659141344cd1fd0a4f28419497f9722a3daafe3b4186f6b6457e060405160405180910390a35050565b61157f6108e8565b156115bf576040517f08c379a00000000000000000000000000000000000000000000000000000000081526004016115b690611ddc565b60405180910390fd5b6001600560006101000a81548160ff0219169083151502179055507f62e78cea01bee320cd4e420270b5ea74000d11b0c9f74754ebdbfc544b05a258611603610d4a565b6040516116109190611ca4565b60405180910390a1565b6116226108e8565b15611662576040517f08c379a000000000000000000000000000000000000000000000000000000000815260040161165990611ddc565b60405180910390fd5b61166d8383836117d7565b505050565b505050565b600073ffffffffffffffffffffffffffffffffffffffff168273ffffffffffffffffffffffffffffffffffffffff1614156116e7576040517f08c379a00000000000000000000000000000000000000000000000000000000081526004016116de90611e9c565b60405180910390fd5b6116f36000838361161a565b80600260008282546117059190611fbb565b92505081905550806000808473ffffffffffffffffffffffffffffffffffffffff1673ffffffffffffffffffffffffffffffffffffffff168152602001908152602001600020600082825461175a9190611fbb565b925050819055508173ffffffffffffffffffffffffffffffffffffffff16600073ffffffffffffffffffffffffffffffffffffffff167fddf252ad1be2c89b69c2b068fc378daa952ba7f163c4a11628f55a4df523b3ef836040516117bf9190611ebc565b60405180910390a36117d360008383611672565b5050565b505050565b60006117ef6117ea84611f63565b611f3e565b90508281526020810184848401111561180757600080fd5b61181284828561214f565b509392505050565b60008135905061182981612655565b92915050565b600082601f83011261184057600080fd5b81356118508482602086016117dc565b91505092915050565b6000813590506118688161266c565b92915050565b60006020828403121561188057600080fd5b600061188e8482850161181a565b91505092915050565b600080604083850312156118aa57600080fd5b60006118b88582860161181a565b92505060206118c98582860161181a565b9150509250929050565b6000806000606084860312156118e857600080fd5b60006118f68682870161181a565b93505060206119078682870161181a565b925050604061191886828701611859565b9150509250925092565b6000806040838503121561193557600080fd5b60006119438582860161181a565b925050602061195485828601611859565b9150509250929050565b60008060006060848603121561197357600080fd5b60006119818682870161181a565b935050602061199286828701611859565b925050604084013567ffffffffffffffff8111156119af57600080fd5b6119bb8682870161182f565b9150509250925092565b6000602082840312156119d757600080fd5b60006119e584828501611859565b91505092915050565b6119f7816120d0565b82525050565b611a06816120e2565b82525050565b6000611a1782611f94565b611a218185611f9f565b9350611a3181856020860161215e565b611a3a816122b0565b840191505092915050565b6000611a5082611f94565b611a5a8185611fb0565b9350611a6a81856020860161215e565b80840191505092915050565b6000611a83602383611f9f565b9150611a8e826122c1565b604082019050919050565b6000611aa6601483611f9f565b9150611ab182612310565b602082019050919050565b6000611ac9602283611f9f565b9150611ad482612339565b604082019050919050565b6000611aec602683611f9f565b9150611af782612388565b604082019050919050565b6000611b0f602283611f9f565b9150611b1a826123d7565b604082019050919050565b6000611b32601d83611f9f565b9150611b3d82612426565b602082019050919050565b6000611b55602683611f9f565b9150611b608261244f565b604082019050919050565b6000611b78601083611f9f565b9150611b838261249e565b602082019050919050565b6000611b9b602083611f9f565b9150611ba6826124c7565b602082019050919050565b6000611bbe602183611f9f565b9150611bc9826124f0565b604082019050919050565b6000611be1602583611f9f565b9150611bec8261253f565b604082019050919050565b6000611c04602483611f9f565b9150611c0f8261258e565b604082019050919050565b6000611c27602583611f9f565b9150611c32826125dd565b604082019050919050565b6000611c4a601f83611f9f565b9150611c558261262c565b602082019050919050565b611c698161210e565b82525050565b611c7881612118565b82525050565b611c878161213d565b82525050565b6000611c998284611a45565b915081905092915050565b6000602082019050611cb960008301846119ee565b92915050565b6000602082019050611cd460008301846119fd565b92915050565b60006020820190508181036000830152611cf48184611a0c565b905092915050565b60006020820190508181036000830152611d1581611a76565b9050919050565b60006020820190508181036000830152611d3581611a99565b9050919050565b60006020820190508181036000830152611d5581611abc565b9050919050565b60006020820190508181036000830152611d7581611adf565b9050919050565b60006020820190508181036000830152611d9581611b02565b9050919050565b60006020820190508181036000830152611db581611b25565b9050919050565b60006020820190508181036000830152611dd581611b48565b9050919050565b60006020820190508181036000830152611df581611b6b565b9050919050565b60006020820190508181036000830152611e1581611b8e565b9050919050565b60006020820190508181036000830152611e3581611bb1565b9050919050565b60006020820190508181036000830152611e5581611bd4565b9050919050565b60006020820190508181036000830152611e7581611bf7565b9050919050565b60006020820190508181036000830152611e9581611c1a565b9050919050565b60006020820190508181036000830152611eb581611c3d565b9050919050565b6000602082019050611ed16000830184611c60565b92915050565b6000602082019050611eec6000830184611c6f565b92915050565b6000608082019050611f076000830187611c7e565b8181036020830152611f198186611a0c565b9050611f286040830185611c60565b611f356060830184611c60565b95945050505050565b6000611f48611f59565b9050611f5482826121c3565b919050565b6000604051905090565b600067ffffffffffffffff821115611f7e57611f7d612281565b5b611f87826122b0565b9050602081019050919050565b600081519050919050565b600082825260208201905092915050565b600081905092915050565b6000611fc68261210e565b9150611fd18361210e565b9250827fffffffffffffffffffffffffffffffffffffffffffffffffffffffffffffffff03821115612006576120056121f4565b5b828201905092915050565b600061201c8261210e565b91506120278361210e565b92508261203757612036612223565b5b828204905092915050565b600061204d8261210e565b91506120588361210e565b9250817fffffffffffffffffffffffffffffffffffffffffffffffffffffffffffffffff0483118215151615612091576120906121f4565b5b828202905092915050565b60006120a78261210e565b91506120b28361210e565b9250828210156120c5576120c46121f4565b5b828203905092915050565b60006120db826120ee565b9050919050565b60008115159050919050565b600073ffffffffffffffffffffffffffffffffffffffff82169050919050565b6000819050919050565b600060ff82169050919050565b60006bffffffffffffffffffffffff82169050919050565b600061214882612125565b9050919050565b82818337600083830152505050565b60005b8381101561217c578082015181840152602081019050612161565b8381111561218b576000848401525b50505050565b600060028204905060018216806121a957607f821691505b602082108114156121bd576121bc612252565b5b50919050565b6121cc826122b0565b810181811067ffffffffffffffff821117156121eb576121ea612281565b5b80604052505050565b7f4e487b7100000000000000000000000000000000000000000000000000000000600052601160045260246000fd5b7f4e487b7100000000000000000000000000000000000000000000000000000000600052601260045260246000fd5b7f4e487b7100000000000000000000000000000000000000000000000000000000600052602260045260246000fd5b7f4e487b7100000000000000000000000000000000000000000000000000000000600052604160045260246000fd5b6000601f19601f8301169050919050565b7f45524332303a207472616e7366657220746f20746865207a65726f206164647260008201527f6573730000000000000000000000000000000000000000000000000000000000602082015250565b7f5061757361626c653a206e6f7420706175736564000000000000000000000000600082015250565b7f45524332303a206275726e20616d6f756e7420657863656564732062616c616e60008201527f6365000000000000000000000000000000000000000000000000000000000000602082015250565b7f4f776e61626c653a206e6577206f776e657220697320746865207a65726f206160008201527f6464726573730000000000000000000000000000000000000000000000000000602082015250565b7f45524332303a20617070726f766520746f20746865207a65726f20616464726560008201527f7373000000000000000000000000000000000000000000000000000000000000602082015250565b7f45524332303a20696e73756666696369656e7420616c6c6f77616e6365000000600082015250565b7f45524332303a207472616e7366657220616d6f756e742065786365656473206260008201527f616c616e63650000000000000000000000000000000000000000000000000000602082015250565b7f5061757361626c653a2070617573656400000000000000000000000000000000600082015250565b7f4f776e61626c653a2063616c6c6572206973206e6f7420746865206f776e6572600082015250565b7f45524332303a206275726e2066726f6d20746865207a65726f2061646472657360008201527f7300000000000000000000000000000000000000000000000000000000000000602082015250565b7f45524332303a207472616e736665722066726f6d20746865207a65726f20616460008201527f6472657373000000000000000000000000000000000000000000000000000000602082015250565b7f45524332303a20617070726f76652066726f6d20746865207a65726f2061646460008201527f7265737300000000000000000000000000000000000000000000000000000000602082015250565b7f45524332303a2064656372656173656420616c6c6f77616e63652062656c6f7760008201527f207a65726f000000000000000000000000000000000000000000000000000000602082015250565b7f45524332303a206d696e7420746f20746865207a65726f206164647265737300600082015250565b61265e816120d0565b811461266957600080fd5b50565b6126758161210e565b811461268057600080fd5b5056fea264697066735822122017f5d1d5f465c05871b190da9f897837f67076ae5005f9f6563876e3878e7aa164736f6c63430008040033",
  "linkReferences": {},
  "deployedLinkReferences": {}
}